{
  "_format": "hh-sol-artifact-1",
  "contractName": "NFTMarketplace",
  "sourceName": "contracts/NFTMarketplace.sol",
  "abi": [
    {
      "inputs": [],
      "stateMutability": "nonpayable",
      "type": "constructor"
    },
    {
      "inputs": [
        {
          "internalType": "address",
          "name": "sender",
          "type": "address"
        },
        {
          "internalType": "uint256",
          "name": "tokenId",
          "type": "uint256"
        },
        {
          "internalType": "address",
          "name": "owner",
          "type": "address"
        }
      ],
      "name": "ERC721IncorrectOwner",
      "type": "error"
    },
    {
      "inputs": [
        {
          "internalType": "address",
          "name": "operator",
          "type": "address"
        },
        {
          "internalType": "uint256",
          "name": "tokenId",
          "type": "uint256"
        }
      ],
      "name": "ERC721InsufficientApproval",
      "type": "error"
    },
    {
      "inputs": [
        {
          "internalType": "address",
          "name": "approver",
          "type": "address"
        }
      ],
      "name": "ERC721InvalidApprover",
      "type": "error"
    },
    {
      "inputs": [
        {
          "internalType": "address",
          "name": "operator",
          "type": "address"
        }
      ],
      "name": "ERC721InvalidOperator",
      "type": "error"
    },
    {
      "inputs": [
        {
          "internalType": "address",
          "name": "owner",
          "type": "address"
        }
      ],
      "name": "ERC721InvalidOwner",
      "type": "error"
    },
    {
      "inputs": [
        {
          "internalType": "address",
          "name": "receiver",
          "type": "address"
        }
      ],
      "name": "ERC721InvalidReceiver",
      "type": "error"
    },
    {
      "inputs": [
        {
          "internalType": "address",
          "name": "sender",
          "type": "address"
        }
      ],
      "name": "ERC721InvalidSender",
      "type": "error"
    },
    {
      "inputs": [
        {
          "internalType": "uint256",
          "name": "tokenId",
          "type": "uint256"
        }
      ],
      "name": "ERC721NonexistentToken",
      "type": "error"
    },
    {
      "anonymous": false,
      "inputs": [
        {
          "indexed": true,
          "internalType": "address",
          "name": "owner",
          "type": "address"
        },
        {
          "indexed": true,
          "internalType": "address",
          "name": "approved",
          "type": "address"
        },
        {
          "indexed": true,
          "internalType": "uint256",
          "name": "tokenId",
          "type": "uint256"
        }
      ],
      "name": "Approval",
      "type": "event"
    },
    {
      "anonymous": false,
      "inputs": [
        {
          "indexed": true,
          "internalType": "address",
          "name": "owner",
          "type": "address"
        },
        {
          "indexed": true,
          "internalType": "address",
          "name": "operator",
          "type": "address"
        },
        {
          "indexed": false,
          "internalType": "bool",
          "name": "approved",
          "type": "bool"
        }
      ],
      "name": "ApprovalForAll",
      "type": "event"
    },
    {
      "anonymous": false,
      "inputs": [
        {
          "indexed": false,
          "internalType": "uint256",
          "name": "_fromTokenId",
          "type": "uint256"
        },
        {
          "indexed": false,
          "internalType": "uint256",
          "name": "_toTokenId",
          "type": "uint256"
        }
      ],
      "name": "BatchMetadataUpdate",
      "type": "event"
    },
    {
      "anonymous": false,
      "inputs": [
        {
          "indexed": false,
          "internalType": "uint256",
          "name": "_tokenId",
          "type": "uint256"
        }
      ],
      "name": "MetadataUpdate",
      "type": "event"
    },
    {
      "anonymous": false,
      "inputs": [
        {
          "indexed": true,
          "internalType": "address",
          "name": "from",
          "type": "address"
        },
        {
          "indexed": true,
          "internalType": "address",
          "name": "to",
          "type": "address"
        },
        {
          "indexed": true,
          "internalType": "uint256",
          "name": "tokenId",
          "type": "uint256"
        }
      ],
      "name": "Transfer",
      "type": "event"
    },
    {
      "inputs": [
        {
          "internalType": "address",
          "name": "to",
          "type": "address"
        },
        {
          "internalType": "uint256",
          "name": "tokenId",
          "type": "uint256"
        }
      ],
      "name": "approve",
      "outputs": [],
      "stateMutability": "nonpayable",
      "type": "function"
    },
    {
      "inputs": [
        {
          "internalType": "address",
          "name": "owner",
          "type": "address"
        }
      ],
      "name": "balanceOf",
      "outputs": [
        {
          "internalType": "uint256",
          "name": "",
          "type": "uint256"
        }
      ],
      "stateMutability": "view",
      "type": "function"
    },
    {
      "inputs": [
        {
          "internalType": "string",
          "name": "tokenURI",
          "type": "string"
        },
        {
          "internalType": "uint256",
          "name": "price",
          "type": "uint256"
        }
      ],
      "name": "createToken",
      "outputs": [
        {
          "internalType": "uint256",
          "name": "",
          "type": "uint256"
        }
      ],
      "stateMutability": "payable",
      "type": "function"
    },
    {
      "inputs": [
        {
          "internalType": "uint256",
          "name": "tokenId",
          "type": "uint256"
        }
      ],
      "name": "executeSale",
      "outputs": [],
      "stateMutability": "payable",
      "type": "function"
    },
    {
      "inputs": [],
      "name": "getAllNFTs",
      "outputs": [
        {
          "components": [
            {
              "internalType": "uint256",
              "name": "tokenId",
              "type": "uint256"
            },
            {
              "internalType": "address payable",
              "name": "owner",
              "type": "address"
            },
            {
              "internalType": "address payable",
              "name": "seller",
              "type": "address"
            },
            {
              "internalType": "uint256",
              "name": "price",
              "type": "uint256"
            },
            {
              "internalType": "bool",
              "name": "currentlyListed",
              "type": "bool"
            }
          ],
          "internalType": "struct NFTMarketplace.ListedToken[]",
          "name": "",
          "type": "tuple[]"
        }
      ],
      "stateMutability": "view",
      "type": "function"
    },
    {
      "inputs": [
        {
          "internalType": "uint256",
          "name": "tokenId",
          "type": "uint256"
        }
      ],
      "name": "getApproved",
      "outputs": [
        {
          "internalType": "address",
          "name": "",
          "type": "address"
        }
      ],
      "stateMutability": "view",
      "type": "function"
    },
    {
      "inputs": [],
      "name": "getCurrentToken",
      "outputs": [
        {
          "internalType": "uint256",
          "name": "",
          "type": "uint256"
        }
      ],
      "stateMutability": "view",
      "type": "function"
    },
    {
      "inputs": [],
      "name": "getLatestIdToListedToken",
      "outputs": [
        {
          "components": [
            {
              "internalType": "uint256",
              "name": "tokenId",
              "type": "uint256"
            },
            {
              "internalType": "address payable",
              "name": "owner",
              "type": "address"
            },
            {
              "internalType": "address payable",
              "name": "seller",
              "type": "address"
            },
            {
              "internalType": "uint256",
              "name": "price",
              "type": "uint256"
            },
            {
              "internalType": "bool",
              "name": "currentlyListed",
              "type": "bool"
            }
          ],
          "internalType": "struct NFTMarketplace.ListedToken",
          "name": "",
          "type": "tuple"
        }
      ],
      "stateMutability": "view",
      "type": "function"
    },
    {
      "inputs": [],
      "name": "getListPrice",
      "outputs": [
        {
          "internalType": "uint256",
          "name": "",
          "type": "uint256"
        }
      ],
      "stateMutability": "view",
      "type": "function"
    },
    {
      "inputs": [
        {
          "internalType": "uint256",
          "name": "tokenId",
          "type": "uint256"
        }
      ],
      "name": "getListedForTokenId",
      "outputs": [
        {
          "components": [
            {
              "internalType": "uint256",
              "name": "tokenId",
              "type": "uint256"
            },
            {
              "internalType": "address payable",
              "name": "owner",
              "type": "address"
            },
            {
              "internalType": "address payable",
              "name": "seller",
              "type": "address"
            },
            {
              "internalType": "uint256",
              "name": "price",
              "type": "uint256"
            },
            {
              "internalType": "bool",
              "name": "currentlyListed",
              "type": "bool"
            }
          ],
          "internalType": "struct NFTMarketplace.ListedToken",
          "name": "",
          "type": "tuple"
        }
      ],
      "stateMutability": "view",
      "type": "function"
    },
    {
      "inputs": [],
      "name": "getMyNFTs",
      "outputs": [
        {
          "components": [
            {
              "internalType": "uint256",
              "name": "tokenId",
              "type": "uint256"
            },
            {
              "internalType": "address payable",
              "name": "owner",
              "type": "address"
            },
            {
              "internalType": "address payable",
              "name": "seller",
              "type": "address"
            },
            {
              "internalType": "uint256",
              "name": "price",
              "type": "uint256"
            },
            {
              "internalType": "bool",
              "name": "currentlyListed",
              "type": "bool"
            }
          ],
          "internalType": "struct NFTMarketplace.ListedToken[]",
          "name": "",
          "type": "tuple[]"
        }
      ],
      "stateMutability": "view",
      "type": "function"
    },
    {
      "inputs": [
        {
          "internalType": "address",
          "name": "owner",
          "type": "address"
        },
        {
          "internalType": "address",
          "name": "operator",
          "type": "address"
        }
      ],
      "name": "isApprovedForAll",
      "outputs": [
        {
          "internalType": "bool",
          "name": "",
          "type": "bool"
        }
      ],
      "stateMutability": "view",
      "type": "function"
    },
    {
      "inputs": [],
      "name": "listPrice",
      "outputs": [
        {
          "internalType": "uint256",
          "name": "",
          "type": "uint256"
        }
      ],
      "stateMutability": "view",
      "type": "function"
    },
    {
      "inputs": [],
      "name": "name",
      "outputs": [
        {
          "internalType": "string",
          "name": "",
          "type": "string"
        }
      ],
      "stateMutability": "view",
      "type": "function"
    },
    {
      "inputs": [
        {
          "internalType": "uint256",
          "name": "tokenId",
          "type": "uint256"
        }
      ],
      "name": "ownerOf",
      "outputs": [
        {
          "internalType": "address",
          "name": "",
          "type": "address"
        }
      ],
      "stateMutability": "view",
      "type": "function"
    },
    {
      "inputs": [
        {
          "internalType": "address",
          "name": "from",
          "type": "address"
        },
        {
          "internalType": "address",
          "name": "to",
          "type": "address"
        },
        {
          "internalType": "uint256",
          "name": "tokenId",
          "type": "uint256"
        }
      ],
      "name": "safeTransferFrom",
      "outputs": [],
      "stateMutability": "nonpayable",
      "type": "function"
    },
    {
      "inputs": [
        {
          "internalType": "address",
          "name": "from",
          "type": "address"
        },
        {
          "internalType": "address",
          "name": "to",
          "type": "address"
        },
        {
          "internalType": "uint256",
          "name": "tokenId",
          "type": "uint256"
        },
        {
          "internalType": "bytes",
          "name": "data",
          "type": "bytes"
        }
      ],
      "name": "safeTransferFrom",
      "outputs": [],
      "stateMutability": "nonpayable",
      "type": "function"
    },
    {
      "inputs": [
        {
          "internalType": "address",
          "name": "operator",
          "type": "address"
        },
        {
          "internalType": "bool",
          "name": "approved",
          "type": "bool"
        }
      ],
      "name": "setApprovalForAll",
      "outputs": [],
      "stateMutability": "nonpayable",
      "type": "function"
    },
    {
      "inputs": [
        {
          "internalType": "bytes4",
          "name": "interfaceId",
          "type": "bytes4"
        }
      ],
      "name": "supportsInterface",
      "outputs": [
        {
          "internalType": "bool",
          "name": "",
          "type": "bool"
        }
      ],
      "stateMutability": "view",
      "type": "function"
    },
    {
      "inputs": [],
      "name": "symbol",
      "outputs": [
        {
          "internalType": "string",
          "name": "",
          "type": "string"
        }
      ],
      "stateMutability": "view",
      "type": "function"
    },
    {
      "inputs": [
        {
          "internalType": "uint256",
          "name": "tokenId",
          "type": "uint256"
        }
      ],
      "name": "tokenURI",
      "outputs": [
        {
          "internalType": "string",
          "name": "",
          "type": "string"
        }
      ],
      "stateMutability": "view",
      "type": "function"
    },
    {
      "inputs": [
        {
          "internalType": "address",
          "name": "from",
          "type": "address"
        },
        {
          "internalType": "address",
          "name": "to",
          "type": "address"
        },
        {
          "internalType": "uint256",
          "name": "tokenId",
          "type": "uint256"
        }
      ],
      "name": "transferFrom",
      "outputs": [],
      "stateMutability": "nonpayable",
      "type": "function"
    },
    {
      "inputs": [
        {
          "internalType": "uint256",
          "name": "_listPrice",
          "type": "uint256"
        }
      ],
      "name": "updateListPrice",
      "outputs": [],
      "stateMutability": "nonpayable",
      "type": "function"
    }
  ],
  "bytecode": "0x60806040526000600855600060095568056bc75e2d63100000600a5534801561002757600080fd5b506040518060400160405280600e81526020017f4e46544d61726b6574706c6163650000000000000000000000000000000000008152506040518060400160405280600481526020017f4e46544d0000000000000000000000000000000000000000000000000000000081525081600090816100a3919061034c565b5080600190816100b3919061034c565b50505033600760006101000a81548173ffffffffffffffffffffffffffffffffffffffff021916908373ffffffffffffffffffffffffffffffffffffffff16021790555061041e565b600081519050919050565b7f4e487b7100000000000000000000000000000000000000000000000000000000600052604160045260246000fd5b7f4e487b7100000000000000000000000000000000000000000000000000000000600052602260045260246000fd5b6000600282049050600182168061017d57607f821691505b6020821081036101905761018f610136565b5b50919050565b60008190508160005260206000209050919050565b60006020601f8301049050919050565b600082821b905092915050565b6000600883026101f87fffffffffffffffffffffffffffffffffffffffffffffffffffffffffffffffff826101bb565b61020286836101bb565b95508019841693508086168417925050509392505050565b6000819050919050565b6000819050919050565b600061024961024461023f8461021a565b610224565b61021a565b9050919050565b6000819050919050565b6102638361022e565b61027761026f82610250565b8484546101c8565b825550505050565b600090565b61028c61027f565b61029781848461025a565b505050565b5b818110156102bb576102b0600082610284565b60018101905061029d565b5050565b601f821115610300576102d181610196565b6102da846101ab565b810160208510156102e9578190505b6102fd6102f5856101ab565b83018261029c565b50505b505050565b600082821c905092915050565b600061032360001984600802610305565b1980831691505092915050565b600061033c8383610312565b9150826002028217905092915050565b610355826100fc565b67ffffffffffffffff81111561036e5761036d610107565b5b6103788254610165565b6103838282856102bf565b600060209050601f8311600181146103b657600084156103a4578287015190505b6103ae8582610330565b865550610416565b601f1984166103c486610196565b60005b828110156103ec578489015182556001820191506020850194506020810190506103c7565b868310156104095784890151610405601f891682610312565b8355505b6001600288020188555050505b505050505050565b6137c68061042d6000396000f3fe6080604052600436106101405760003560e01c806372b3b620116100b6578063c322579c1161006f578063c322579c14610466578063c87b56dd1461048f578063d1a88ae5146104cc578063e0391b09146104f7578063e985e9c514610522578063ef2d17461461055f57610140565b806372b3b6201461036057806395d89b411461039057806398c3df16146103bb5780639b1225c4146103f8578063a22cb46514610414578063b88d4fde1461043d57610140565b806342842e0e1161010857806342842e0e1461023c578063629cb2e4146102655780636352211e1461029057806368f1945f146102cd5780636eb588d9146102f857806370a082311461032357610140565b806301ffc9a71461014557806306fdde0314610182578063081812fc146101ad578063095ea7b3146101ea57806323b872dd14610213575b600080fd5b34801561015157600080fd5b5061016c6004803603810190610167919061278c565b61058a565b60405161017991906127d4565b60405180910390f35b34801561018e57600080fd5b506101976105eb565b6040516101a4919061287f565b60405180910390f35b3480156101b957600080fd5b506101d460048036038101906101cf91906128d7565b61067d565b6040516101e19190612945565b60405180910390f35b3480156101f657600080fd5b50610211600480360381019061020c919061298c565b610699565b005b34801561021f57600080fd5b5061023a600480360381019061023591906129cc565b6106af565b005b34801561024857600080fd5b50610263600480360381019061025e91906129cc565b6107b1565b005b34801561027157600080fd5b5061027a6107d1565b6040516102879190612b75565b60405180910390f35b34801561029c57600080fd5b506102b760048036038101906102b291906128d7565b610a89565b6040516102c49190612945565b60405180910390f35b3480156102d957600080fd5b506102e2610a9b565b6040516102ef9190612ba6565b60405180910390f35b34801561030457600080fd5b5061030d610aa5565b60405161031a9190612ba6565b60405180910390f35b34801561032f57600080fd5b5061034a60048036038101906103459190612bc1565b610aab565b6040516103579190612ba6565b60405180910390f35b61037a60048036038101906103759190612d23565b610b65565b6040516103879190612ba6565b60405180910390f35b34801561039c57600080fd5b506103a5610d64565b6040516103b2919061287f565b60405180910390f35b3480156103c757600080fd5b506103e260048036038101906103dd91906128d7565b610df6565b6040516103ef9190612de7565b60405180910390f35b610412600480360381019061040d91906128d7565b610efe565b005b34801561042057600080fd5b5061043b60048036038101906104369190612e2e565b6110ec565b005b34801561044957600080fd5b50610464600480360381019061045f9190612f0f565b611102565b005b34801561047257600080fd5b5061048d600480360381019061048891906128d7565b611127565b005b34801561049b57600080fd5b506104b660048036038101906104b191906128d7565b6111c1565b6040516104c3919061287f565b60405180910390f35b3480156104d857600080fd5b506104e16112d4565b6040516104ee9190612de7565b60405180910390f35b34801561050357600080fd5b5061050c6113e2565b6040516105199190612b75565b60405180910390f35b34801561052e57600080fd5b5061054960048036038101906105449190612f92565b611594565b60405161055691906127d4565b60405180910390f35b34801561056b57600080fd5b50610574611628565b6040516105819190612ba6565b60405180910390f35b6000634906490660e01b7bffffffffffffffffffffffffffffffffffffffffffffffffffffffff1916827bffffffffffffffffffffffffffffffffffffffffffffffffffffffff191614806105e457506105e382611632565b5b9050919050565b6060600080546105fa90613001565b80601f016020809104026020016040519081016040528092919081815260200182805461062690613001565b80156106735780601f1061064857610100808354040283529160200191610673565b820191906000526020600020905b81548152906001019060200180831161065657829003601f168201915b5050505050905090565b600061068882611714565b506106928261179c565b9050919050565b6106ab82826106a66117d9565b6117e1565b5050565b600073ffffffffffffffffffffffffffffffffffffffff168273ffffffffffffffffffffffffffffffffffffffff16036107215760006040517f64a0ae920000000000000000000000000000000000000000000000000000000081526004016107189190612945565b60405180910390fd5b600061073583836107306117d9565b6117f3565b90508373ffffffffffffffffffffffffffffffffffffffff168173ffffffffffffffffffffffffffffffffffffffff16146107ab578382826040517f64283d7b0000000000000000000000000000000000000000000000000000000081526004016107a293929190613032565b60405180910390fd5b50505050565b6107cc83838360405180602001604052806000815250611102565b505050565b606060006008549050600080600190505b828111610874573373ffffffffffffffffffffffffffffffffffffffff16600b600083815260200190815260200160002060010160009054906101000a900473ffffffffffffffffffffffffffffffffffffffff1673ffffffffffffffffffffffffffffffffffffffff160361086157818061085d90613098565b9250505b808061086c90613098565b9150506107e2565b5060008167ffffffffffffffff81111561089157610890612bf8565b5b6040519080825280602002602001820160405280156108ca57816020015b6108b76126c3565b8152602001906001900390816108af5790505b509050600080600190505b848111610a7e573373ffffffffffffffffffffffffffffffffffffffff16600b600083815260200190815260200160002060010160009054906101000a900473ffffffffffffffffffffffffffffffffffffffff1673ffffffffffffffffffffffffffffffffffffffff1603610a6b57600b60008281526020019081526020016000206040518060a0016040529081600082015481526020016001820160009054906101000a900473ffffffffffffffffffffffffffffffffffffffff1673ffffffffffffffffffffffffffffffffffffffff1673ffffffffffffffffffffffffffffffffffffffff1681526020016002820160009054906101000a900473ffffffffffffffffffffffffffffffffffffffff1673ffffffffffffffffffffffffffffffffffffffff1673ffffffffffffffffffffffffffffffffffffffff168152602001600382015481526020016004820160009054906101000a900460ff161515151581525050838381518110610a5157610a506130e0565b5b60200260200101819052508180610a6790613098565b9250505b8080610a7690613098565b9150506108d5565b508194505050505090565b6000610a9482611714565b9050919050565b6000600a54905090565b600a5481565b60008073ffffffffffffffffffffffffffffffffffffffff168273ffffffffffffffffffffffffffffffffffffffff1603610b1e5760006040517f89c62b64000000000000000000000000000000000000000000000000000000008152600401610b159190612945565b60405180910390fd5b600360008373ffffffffffffffffffffffffffffffffffffffff1673ffffffffffffffffffffffffffffffffffffffff168152602001908152602001600020549050919050565b6000600a543414610bab576040517f08c379a0000000000000000000000000000000000000000000000000000000008152600401610ba29061315b565b60405180910390fd5b60008211610bee576040517f08c379a0000000000000000000000000000000000000000000000000000000008152600401610be5906131c7565b60405180910390fd5b60086000815480929190610c0190613098565b919050555060006008549050610c173382611a0d565b610c218185611a2b565b6040518060a001604052808281526020013073ffffffffffffffffffffffffffffffffffffffff1681526020013373ffffffffffffffffffffffffffffffffffffffff16815260200184815260200160011515815250600b60008381526020019081526020016000206000820151816000015560208201518160010160006101000a81548173ffffffffffffffffffffffffffffffffffffffff021916908373ffffffffffffffffffffffffffffffffffffffff16021790555060408201518160020160006101000a81548173ffffffffffffffffffffffffffffffffffffffff021916908373ffffffffffffffffffffffffffffffffffffffff1602179055506060820151816003015560808201518160040160006101000a81548160ff021916908315150217905550905050610d5a333083611a87565b8091505092915050565b606060018054610d7390613001565b80601f0160208091040260200160405190810160405280929190818152602001828054610d9f90613001565b8015610dec5780601f10610dc157610100808354040283529160200191610dec565b820191906000526020600020905b815481529060010190602001808311610dcf57829003601f168201915b5050505050905090565b610dfe6126c3565b600b60008381526020019081526020016000206040518060a0016040529081600082015481526020016001820160009054906101000a900473ffffffffffffffffffffffffffffffffffffffff1673ffffffffffffffffffffffffffffffffffffffff1673ffffffffffffffffffffffffffffffffffffffff1681526020016002820160009054906101000a900473ffffffffffffffffffffffffffffffffffffffff1673ffffffffffffffffffffffffffffffffffffffff1673ffffffffffffffffffffffffffffffffffffffff168152602001600382015481526020016004820160009054906101000a900460ff1615151515815250509050919050565b6000600b600083815260200190815260200160002090508060040160009054906101000a900460ff16610f66576040517f08c379a0000000000000000000000000000000000000000000000000000000008152600401610f5d90613259565b60405180910390fd5b80600301543414610fac576040517f08c379a0000000000000000000000000000000000000000000000000000000008152600401610fa3906132eb565b60405180910390fd5b8060020160009054906101000a900473ffffffffffffffffffffffffffffffffffffffff1673ffffffffffffffffffffffffffffffffffffffff166108fc349081150290604051600060405180830381858888f19350505050158015611016573d6000803e3d6000fd5b50611022303384611a87565b61102c3083610699565b60008160040160006101000a81548160ff021916908315150217905550338160010160006101000a81548173ffffffffffffffffffffffffffffffffffffffff021916908373ffffffffffffffffffffffffffffffffffffffff16021790555060008160020160006101000a81548173ffffffffffffffffffffffffffffffffffffffff021916908373ffffffffffffffffffffffffffffffffffffffff160217905550600960008154809291906110e390613098565b91905055505050565b6110fe6110f76117d9565b8383611bf4565b5050565b61110d8484846106af565b6111216111186117d9565b85858585611d63565b50505050565b3373ffffffffffffffffffffffffffffffffffffffff16600760009054906101000a900473ffffffffffffffffffffffffffffffffffffffff1673ffffffffffffffffffffffffffffffffffffffff16146111b7576040517f08c379a00000000000000000000000000000000000000000000000000000000081526004016111ae90613357565b60405180910390fd5b80600a8190555050565b60606111cc82611714565b5060006006600084815260200190815260200160002080546111ed90613001565b80601f016020809104026020016040519081016040528092919081815260200182805461121990613001565b80156112665780601f1061123b57610100808354040283529160200191611266565b820191906000526020600020905b81548152906001019060200180831161124957829003601f168201915b505050505090506000611277611f14565b9050600081510361128c5781925050506112cf565b6000825111156112c15780826040516020016112a99291906133b3565b604051602081830303815290604052925050506112cf565b6112ca84611f2b565b925050505b919050565b6112dc6126c3565b60006008549050600b60008281526020019081526020016000206040518060a0016040529081600082015481526020016001820160009054906101000a900473ffffffffffffffffffffffffffffffffffffffff1673ffffffffffffffffffffffffffffffffffffffff1673ffffffffffffffffffffffffffffffffffffffff1681526020016002820160009054906101000a900473ffffffffffffffffffffffffffffffffffffffff1673ffffffffffffffffffffffffffffffffffffffff1673ffffffffffffffffffffffffffffffffffffffff168152602001600382015481526020016004820160009054906101000a900460ff16151515158152505091505090565b60606000600854905060008167ffffffffffffffff81111561140757611406612bf8565b5b60405190808252806020026020018201604052801561144057816020015b61142d6126c3565b8152602001906001900390816114255790505b509050600080600190505b83811161158a57600b60008281526020019081526020016000206040518060a0016040529081600082015481526020016001820160009054906101000a900473ffffffffffffffffffffffffffffffffffffffff1673ffffffffffffffffffffffffffffffffffffffff1673ffffffffffffffffffffffffffffffffffffffff1681526020016002820160009054906101000a900473ffffffffffffffffffffffffffffffffffffffff1673ffffffffffffffffffffffffffffffffffffffff1673ffffffffffffffffffffffffffffffffffffffff168152602001600382015481526020016004820160009054906101000a900460ff16151515158152505083838151811061155e5761155d6130e0565b5b6020026020010181905250818061157490613098565b925050808061158290613098565b91505061144b565b5081935050505090565b6000600560008473ffffffffffffffffffffffffffffffffffffffff1673ffffffffffffffffffffffffffffffffffffffff16815260200190815260200160002060008373ffffffffffffffffffffffffffffffffffffffff1673ffffffffffffffffffffffffffffffffffffffff16815260200190815260200160002060009054906101000a900460ff16905092915050565b6000600854905090565b60007f80ac58cd000000000000000000000000000000000000000000000000000000007bffffffffffffffffffffffffffffffffffffffffffffffffffffffff1916827bffffffffffffffffffffffffffffffffffffffffffffffffffffffff191614806116fd57507f5b5e139f000000000000000000000000000000000000000000000000000000007bffffffffffffffffffffffffffffffffffffffffffffffffffffffff1916827bffffffffffffffffffffffffffffffffffffffffffffffffffffffff1916145b8061170d575061170c82611f94565b5b9050919050565b60008061172083611ffe565b9050600073ffffffffffffffffffffffffffffffffffffffff168173ffffffffffffffffffffffffffffffffffffffff160361179357826040517f7e27328900000000000000000000000000000000000000000000000000000000815260040161178a9190612ba6565b60405180910390fd5b80915050919050565b60006004600083815260200190815260200160002060009054906101000a900473ffffffffffffffffffffffffffffffffffffffff169050919050565b600033905090565b6117ee838383600161203b565b505050565b6000806117ff84611ffe565b9050600073ffffffffffffffffffffffffffffffffffffffff168373ffffffffffffffffffffffffffffffffffffffff161461184157611840818486612200565b5b600073ffffffffffffffffffffffffffffffffffffffff168173ffffffffffffffffffffffffffffffffffffffff16146118d25761188360008560008061203b565b6001600360008373ffffffffffffffffffffffffffffffffffffffff1673ffffffffffffffffffffffffffffffffffffffff168152602001908152602001600020600082825403925050819055505b600073ffffffffffffffffffffffffffffffffffffffff168573ffffffffffffffffffffffffffffffffffffffff1614611955576001600360008773ffffffffffffffffffffffffffffffffffffffff1673ffffffffffffffffffffffffffffffffffffffff168152602001908152602001600020600082825401925050819055505b846002600086815260200190815260200160002060006101000a81548173ffffffffffffffffffffffffffffffffffffffff021916908373ffffffffffffffffffffffffffffffffffffffff160217905550838573ffffffffffffffffffffffffffffffffffffffff168273ffffffffffffffffffffffffffffffffffffffff167fddf252ad1be2c89b69c2b068fc378daa952ba7f163c4a11628f55a4df523b3ef60405160405180910390a4809150509392505050565b611a278282604051806020016040528060008152506122c4565b5050565b80600660008481526020019081526020016000209081611a4b9190613583565b507ff8e1a15aba9398e019f0b49df1a4fde98ee17ae345cb5f6b5e2c27f5033e8ce782604051611a7b9190612ba6565b60405180910390a15050565b600073ffffffffffffffffffffffffffffffffffffffff168273ffffffffffffffffffffffffffffffffffffffff1603611af95760006040517f64a0ae92000000000000000000000000000000000000000000000000000000008152600401611af09190612945565b60405180910390fd5b6000611b07838360006117f3565b9050600073ffffffffffffffffffffffffffffffffffffffff168173ffffffffffffffffffffffffffffffffffffffff1603611b7a57816040517f7e273289000000000000000000000000000000000000000000000000000000008152600401611b719190612ba6565b60405180910390fd5b8373ffffffffffffffffffffffffffffffffffffffff168173ffffffffffffffffffffffffffffffffffffffff1614611bee578382826040517f64283d7b000000000000000000000000000000000000000000000000000000008152600401611be593929190613032565b60405180910390fd5b50505050565b600073ffffffffffffffffffffffffffffffffffffffff168273ffffffffffffffffffffffffffffffffffffffff1603611c6557816040517f5b08ba18000000000000000000000000000000000000000000000000000000008152600401611c5c9190612945565b60405180910390fd5b80600560008573ffffffffffffffffffffffffffffffffffffffff1673ffffffffffffffffffffffffffffffffffffffff16815260200190815260200160002060008473ffffffffffffffffffffffffffffffffffffffff1673ffffffffffffffffffffffffffffffffffffffff16815260200190815260200160002060006101000a81548160ff0219169083151502179055508173ffffffffffffffffffffffffffffffffffffffff168373ffffffffffffffffffffffffffffffffffffffff167f17307eab39ab6107e8899845ad3d59bd9653f200f220920489ca2b5937696c3183604051611d5691906127d4565b60405180910390a3505050565b60008373ffffffffffffffffffffffffffffffffffffffff163b1115611f0d578273ffffffffffffffffffffffffffffffffffffffff1663150b7a02868685856040518563ffffffff1660e01b8152600401611dc294939291906136aa565b6020604051808303816000875af1925050508015611dfe57506040513d601f19601f82011682018060405250810190611dfb919061370b565b60015b611e82573d8060008114611e2e576040519150601f19603f3d011682016040523d82523d6000602084013e611e33565b606091505b506000815103611e7a57836040517f64a0ae92000000000000000000000000000000000000000000000000000000008152600401611e719190612945565b60405180910390fd5b805181602001fd5b63150b7a0260e01b7bffffffffffffffffffffffffffffffffffffffffffffffffffffffff1916817bffffffffffffffffffffffffffffffffffffffffffffffffffffffff191614611f0b57836040517f64a0ae92000000000000000000000000000000000000000000000000000000008152600401611f029190612945565b60405180910390fd5b505b5050505050565b606060405180602001604052806000815250905090565b6060611f3682611714565b506000611f41611f14565b90506000815111611f615760405180602001604052806000815250611f8c565b80611f6b846122e8565b604051602001611f7c9291906133b3565b6040516020818303038152906040525b915050919050565b60007f01ffc9a7000000000000000000000000000000000000000000000000000000007bffffffffffffffffffffffffffffffffffffffffffffffffffffffff1916827bffffffffffffffffffffffffffffffffffffffffffffffffffffffff1916149050919050565b60006002600083815260200190815260200160002060009054906101000a900473ffffffffffffffffffffffffffffffffffffffff169050919050565b80806120745750600073ffffffffffffffffffffffffffffffffffffffff168273ffffffffffffffffffffffffffffffffffffffff1614155b156121a857600061208484611714565b9050600073ffffffffffffffffffffffffffffffffffffffff168373ffffffffffffffffffffffffffffffffffffffff16141580156120ef57508273ffffffffffffffffffffffffffffffffffffffff168173ffffffffffffffffffffffffffffffffffffffff1614155b801561210257506121008184611594565b155b1561214457826040517fa9fbf51f00000000000000000000000000000000000000000000000000000000815260040161213b9190612945565b60405180910390fd5b81156121a657838573ffffffffffffffffffffffffffffffffffffffff168273ffffffffffffffffffffffffffffffffffffffff167f8c5be1e5ebec7d5bd14f71427d1e84f3dd0314c0f7b2291e5b200ac8c7c3b92560405160405180910390a45b505b836004600085815260200190815260200160002060006101000a81548173ffffffffffffffffffffffffffffffffffffffff021916908373ffffffffffffffffffffffffffffffffffffffff16021790555050505050565b61220b8383836123b6565b6122bf57600073ffffffffffffffffffffffffffffffffffffffff168373ffffffffffffffffffffffffffffffffffffffff160361228057806040517f7e2732890000000000000000000000000000000000000000000000000000000081526004016122779190612ba6565b60405180910390fd5b81816040517f177e802f0000000000000000000000000000000000000000000000000000000081526004016122b6929190613738565b60405180910390fd5b505050565b6122ce8383612477565b6122e36122d96117d9565b6000858585611d63565b505050565b6060600060016122f784612570565b01905060008167ffffffffffffffff81111561231657612315612bf8565b5b6040519080825280601f01601f1916602001820160405280156123485781602001600182028036833780820191505090505b509050600082602001820190505b6001156123ab578080600190039150507f3031323334353637383961626364656600000000000000000000000000000000600a86061a8153600a858161239f5761239e613761565b5b04945060008503612356575b819350505050919050565b60008073ffffffffffffffffffffffffffffffffffffffff168373ffffffffffffffffffffffffffffffffffffffff161415801561246e57508273ffffffffffffffffffffffffffffffffffffffff168473ffffffffffffffffffffffffffffffffffffffff16148061242f575061242e8484611594565b5b8061246d57508273ffffffffffffffffffffffffffffffffffffffff166124558361179c565b73ffffffffffffffffffffffffffffffffffffffff16145b5b90509392505050565b600073ffffffffffffffffffffffffffffffffffffffff168273ffffffffffffffffffffffffffffffffffffffff16036124e95760006040517f64a0ae920000000000000000000000000000000000000000000000000000000081526004016124e09190612945565b60405180910390fd5b60006124f7838360006117f3565b9050600073ffffffffffffffffffffffffffffffffffffffff168173ffffffffffffffffffffffffffffffffffffffff161461256b5760006040517f73c6ac6e0000000000000000000000000000000000000000000000000000000081526004016125629190612945565b60405180910390fd5b505050565b600080600090507a184f03e93ff9f4daa797ed6e38ed64bf6a1f01000000000000000083106125ce577a184f03e93ff9f4daa797ed6e38ed64bf6a1f01000000000000000083816125c4576125c3613761565b5b0492506040810190505b6d04ee2d6d415b85acef8100000000831061260b576d04ee2d6d415b85acef8100000000838161260157612600613761565b5b0492506020810190505b662386f26fc10000831061263a57662386f26fc1000083816126305761262f613761565b5b0492506010810190505b6305f5e1008310612663576305f5e100838161265957612658613761565b5b0492506008810190505b612710831061268857612710838161267e5761267d613761565b5b0492506004810190505b606483106126ab57606483816126a1576126a0613761565b5b0492506002810190505b600a83106126ba576001810190505b80915050919050565b6040518060a0016040528060008152602001600073ffffffffffffffffffffffffffffffffffffffff168152602001600073ffffffffffffffffffffffffffffffffffffffff168152602001600081526020016000151581525090565b6000604051905090565b600080fd5b600080fd5b60007fffffffff0000000000000000000000000000000000000000000000000000000082169050919050565b61276981612734565b811461277457600080fd5b50565b60008135905061278681612760565b92915050565b6000602082840312156127a2576127a161272a565b5b60006127b084828501612777565b91505092915050565b60008115159050919050565b6127ce816127b9565b82525050565b60006020820190506127e960008301846127c5565b92915050565b600081519050919050565b600082825260208201905092915050565b60005b8381101561282957808201518184015260208101905061280e565b60008484015250505050565b6000601f19601f8301169050919050565b6000612851826127ef565b61285b81856127fa565b935061286b81856020860161280b565b61287481612835565b840191505092915050565b600060208201905081810360008301526128998184612846565b905092915050565b6000819050919050565b6128b4816128a1565b81146128bf57600080fd5b50565b6000813590506128d1816128ab565b92915050565b6000602082840312156128ed576128ec61272a565b5b60006128fb848285016128c2565b91505092915050565b600073ffffffffffffffffffffffffffffffffffffffff82169050919050565b600061292f82612904565b9050919050565b61293f81612924565b82525050565b600060208201905061295a6000830184612936565b92915050565b61296981612924565b811461297457600080fd5b50565b60008135905061298681612960565b92915050565b600080604083850312156129a3576129a261272a565b5b60006129b185828601612977565b92505060206129c2858286016128c2565b9150509250929050565b6000806000606084860312156129e5576129e461272a565b5b60006129f386828701612977565b9350506020612a0486828701612977565b9250506040612a15868287016128c2565b9150509250925092565b600081519050919050565b600082825260208201905092915050565b6000819050602082019050919050565b612a54816128a1565b82525050565b6000612a6582612904565b9050919050565b612a7581612a5a565b82525050565b612a84816127b9565b82525050565b60a082016000820151612aa06000850182612a4b565b506020820151612ab36020850182612a6c565b506040820151612ac66040850182612a6c565b506060820151612ad96060850182612a4b565b506080820151612aec6080850182612a7b565b50505050565b6000612afe8383612a8a565b60a08301905092915050565b6000602082019050919050565b6000612b2282612a1f565b612b2c8185612a2a565b9350612b3783612a3b565b8060005b83811015612b68578151612b4f8882612af2565b9750612b5a83612b0a565b925050600181019050612b3b565b5085935050505092915050565b60006020820190508181036000830152612b8f8184612b17565b905092915050565b612ba0816128a1565b82525050565b6000602082019050612bbb6000830184612b97565b92915050565b600060208284031215612bd757612bd661272a565b5b6000612be584828501612977565b91505092915050565b600080fd5b600080fd5b7f4e487b7100000000000000000000000000000000000000000000000000000000600052604160045260246000fd5b612c3082612835565b810181811067ffffffffffffffff82111715612c4f57612c4e612bf8565b5b80604052505050565b6000612c62612720565b9050612c6e8282612c27565b919050565b600067ffffffffffffffff821115612c8e57612c8d612bf8565b5b612c9782612835565b9050602081019050919050565b82818337600083830152505050565b6000612cc6612cc184612c73565b612c58565b905082815260208101848484011115612ce257612ce1612bf3565b5b612ced848285612ca4565b509392505050565b600082601f830112612d0a57612d09612bee565b5b8135612d1a848260208601612cb3565b91505092915050565b60008060408385031215612d3a57612d3961272a565b5b600083013567ffffffffffffffff811115612d5857612d5761272f565b5b612d6485828601612cf5565b9250506020612d75858286016128c2565b9150509250929050565b60a082016000820151612d956000850182612a4b565b506020820151612da86020850182612a6c565b506040820151612dbb6040850182612a6c565b506060820151612dce6060850182612a4b565b506080820151612de16080850182612a7b565b50505050565b600060a082019050612dfc6000830184612d7f565b92915050565b612e0b816127b9565b8114612e1657600080fd5b50565b600081359050612e2881612e02565b92915050565b60008060408385031215612e4557612e4461272a565b5b6000612e5385828601612977565b9250506020612e6485828601612e19565b9150509250929050565b600067ffffffffffffffff821115612e8957612e88612bf8565b5b612e9282612835565b9050602081019050919050565b6000612eb2612ead84612e6e565b612c58565b905082815260208101848484011115612ece57612ecd612bf3565b5b612ed9848285612ca4565b509392505050565b600082601f830112612ef657612ef5612bee565b5b8135612f06848260208601612e9f565b91505092915050565b60008060008060808587031215612f2957612f2861272a565b5b6000612f3787828801612977565b9450506020612f4887828801612977565b9350506040612f59878288016128c2565b925050606085013567ffffffffffffffff811115612f7a57612f7961272f565b5b612f8687828801612ee1565b91505092959194509250565b60008060408385031215612fa957612fa861272a565b5b6000612fb785828601612977565b9250506020612fc885828601612977565b9150509250929050565b7f4e487b7100000000000000000000000000000000000000000000000000000000600052602260045260246000fd5b6000600282049050600182168061301957607f821691505b60208210810361302c5761302b612fd2565b5b50919050565b60006060820190506130476000830186612936565b6130546020830185612b97565b6130616040830184612936565b949350505050565b7f4e487b7100000000000000000000000000000000000000000000000000000000600052601160045260246000fd5b60006130a3826128a1565b91507fffffffffffffffffffffffffffffffffffffffffffffffffffffffffffffffff82036130d5576130d4613069565b5b600182019050919050565b7f4e487b7100000000000000000000000000000000000000000000000000000000600052603260045260246000fd5b7f53656e642074686520636f727265637420707269636520746f206c6973740000600082015250565b6000613145601e836127fa565b91506131508261310f565b602082019050919050565b6000602082019050818103600083015261317481613138565b9050919050565b7f5072696365206d7573742062652067726561746572207468616e207a65726f00600082015250565b60006131b1601f836127fa565b91506131bc8261317b565b602082019050919050565b600060208201905081810360008301526131e0816131a4565b9050919050565b7f5468697320746f6b656e206973206e6f742063757272656e746c79206c69737460008201527f656420666f722073616c65000000000000000000000000000000000000000000602082015250565b6000613243602b836127fa565b915061324e826131e7565b604082019050919050565b6000602082019050818103600083015261327281613236565b9050919050565b7f506c65617365207375626d6974207468652061736b696e67207072696365206960008201527f6e206f7264657220746f20636f6d706c65746520746865207075726368617365602082015250565b60006132d56040836127fa565b91506132e082613279565b604082019050919050565b60006020820190508181036000830152613304816132c8565b9050919050565b7f4f6e6c79206f776e65722063616e207570646174652074686520707269636500600082015250565b6000613341601f836127fa565b915061334c8261330b565b602082019050919050565b6000602082019050818103600083015261337081613334565b9050919050565b600081905092915050565b600061338d826127ef565b6133978185613377565b93506133a781856020860161280b565b80840191505092915050565b60006133bf8285613382565b91506133cb8284613382565b91508190509392505050565b60008190508160005260206000209050919050565b60006020601f8301049050919050565b600082821b905092915050565b6000600883026134397fffffffffffffffffffffffffffffffffffffffffffffffffffffffffffffffff826133fc565b61344386836133fc565b95508019841693508086168417925050509392505050565b6000819050919050565b600061348061347b613476846128a1565b61345b565b6128a1565b9050919050565b6000819050919050565b61349a83613465565b6134ae6134a682613487565b848454613409565b825550505050565b600090565b6134c36134b6565b6134ce818484613491565b505050565b5b818110156134f2576134e76000826134bb565b6001810190506134d4565b5050565b601f82111561353757613508816133d7565b613511846133ec565b81016020851015613520578190505b61353461352c856133ec565b8301826134d3565b50505b505050565b600082821c905092915050565b600061355a6000198460080261353c565b1980831691505092915050565b60006135738383613549565b9150826002028217905092915050565b61358c826127ef565b67ffffffffffffffff8111156135a5576135a4612bf8565b5b6135af8254613001565b6135ba8282856134f6565b600060209050601f8311600181146135ed57600084156135db578287015190505b6135e58582613567565b86555061364d565b601f1984166135fb866133d7565b60005b82811015613623578489015182556001820191506020850194506020810190506135fe565b86831015613640578489015161363c601f891682613549565b8355505b6001600288020188555050505b505050505050565b600081519050919050565b600082825260208201905092915050565b600061367c82613655565b6136868185613660565b935061369681856020860161280b565b61369f81612835565b840191505092915050565b60006080820190506136bf6000830187612936565b6136cc6020830186612936565b6136d96040830185612b97565b81810360608301526136eb8184613671565b905095945050505050565b60008151905061370581612760565b92915050565b6000602082840312156137215761372061272a565b5b600061372f848285016136f6565b91505092915050565b600060408201905061374d6000830185612936565b61375a6020830184612b97565b9392505050565b7f4e487b7100000000000000000000000000000000000000000000000000000000600052601260045260246000fdfea2646970667358221220d9bba03cac7c1cebea28ba7f5746455c5c17eb2442b176777a525a669e8fec0764736f6c634300081b0033",
  "linkReferences": {},
  "deployedLinkReferences": {}
}